{
  "_format": "hh-sol-artifact-1",
  "contractName": "Survey",
  "sourceName": "contracts/Survey.sol",
  "abi": [
    {
      "inputs": [
        {
          "internalType": "address",
          "name": "_kryptonTokenAddress",
          "type": "address"
        }
      ],
      "stateMutability": "nonpayable",
      "type": "constructor"
    },
    {
      "inputs": [
        {
          "internalType": "uint256",
          "name": "_amount",
          "type": "uint256"
        }
      ],
      "name": "createRequest",
      "outputs": [],
      "stateMutability": "nonpayable",
      "type": "function"
    },
    {
      "inputs": [
        {
          "internalType": "address",
          "name": "_user",
          "type": "address"
        }
      ],
      "name": "getMyHistory",
      "outputs": [
        {
          "components": [
            {
              "internalType": "string",
              "name": "action",
              "type": "string"
            },
            {
              "internalType": "uint256",
              "name": "amount",
              "type": "uint256"
            },
            {
              "internalType": "address",
              "name": "otherPartyAddress",
              "type": "address"
            },
            {
              "internalType": "string",
              "name": "otherPartyName",
              "type": "string"
            }
          ],
          "internalType": "struct Survey.sendRedeemToken[]",
          "name": "",
          "type": "tuple[]"
        }
      ],
      "stateMutability": "view",
      "type": "function"
    },
    {
      "inputs": [
        {
          "internalType": "address",
          "name": "_user",
          "type": "address"
        }
      ],
      "name": "getMyRequests",
      "outputs": [
        {
          "internalType": "address[]",
          "name": "",
          "type": "address[]"
        },
        {
          "internalType": "uint256[]",
          "name": "",
          "type": "uint256[]"
        }
      ],
      "stateMutability": "view",
      "type": "function"
    },
    {
      "inputs": [
        {
          "internalType": "address",
          "name": "_user",
          "type": "address"
        }
      ],
      "name": "getSurveyHistory",
      "outputs": [
        {
          "components": [
            {
              "internalType": "address",
              "name": "sender",
              "type": "address"
            },
            {
              "internalType": "address",
              "name": "receiver",
              "type": "address"
            },
            {
              "internalType": "uint256",
              "name": "amount",
              "type": "uint256"
            },
            {
              "internalType": "string",
              "name": "hashedData",
              "type": "string"
            }
          ],
          "internalType": "struct Survey.createSurvey[]",
          "name": "",
          "type": "tuple[]"
        }
      ],
      "stateMutability": "view",
      "type": "function"
    },
    {
      "inputs": [],
      "name": "kryptonToken",
      "outputs": [
        {
          "internalType": "contract Krypton",
          "name": "",
          "type": "address"
        }
      ],
      "stateMutability": "view",
      "type": "function"
    },
    {
      "inputs": [],
      "name": "owner",
      "outputs": [
        {
          "internalType": "address",
          "name": "",
          "type": "address"
        }
      ],
      "stateMutability": "view",
      "type": "function"
    },
    {
      "inputs": [
        {
          "internalType": "address",
          "name": "_receiver",
          "type": "address"
        },
        {
          "internalType": "uint256",
          "name": "_amount",
          "type": "uint256"
        },
        {
          "internalType": "uint256",
          "name": "_request",
          "type": "uint256"
        }
      ],
      "name": "payRequest",
      "outputs": [],
      "stateMutability": "payable",
      "type": "function"
    },
    {
      "inputs": [
        {
          "internalType": "address",
          "name": "_sender",
          "type": "address"
        },
        {
          "internalType": "address",
          "name": "_receiver",
          "type": "address"
        },
        {
          "internalType": "uint256",
          "name": "_amount",
          "type": "uint256"
        },
        {
          "internalType": "string",
          "name": "_hashedData",
          "type": "string"
        }
      ],
      "name": "sendTokens",
      "outputs": [],
      "stateMutability": "payable",
      "type": "function"
    }
  ],
  "bytecode": "0x60806040523480156200001157600080fd5b50604051620028f6380380620028f6833981810160405281019062000037919062000132565b600160008190555033600360006101000a81548173ffffffffffffffffffffffffffffffffffffffff021916908373ffffffffffffffffffffffffffffffffffffffff16021790555080600460006101000a81548173ffffffffffffffffffffffffffffffffffffffff021916908373ffffffffffffffffffffffffffffffffffffffff1602179055505062000164565b600080fd5b600073ffffffffffffffffffffffffffffffffffffffff82169050919050565b6000620000fa82620000cd565b9050919050565b6200010c81620000ed565b81146200011857600080fd5b50565b6000815190506200012c8162000101565b92915050565b6000602082840312156200014b576200014a620000c8565b5b60006200015b848285016200011b565b91505092915050565b61278280620001746000396000f3fe60806040526004361061007b5760003560e01c806352b7441b1161004e57806352b7441b146101545780638da5cb5b14610170578063da7620a31461019b578063f2bc3c50146101c45761007b565b8063218f3ca614610080578063347b1b831461009c578063370068aa146100da57806342563b7214610117575b600080fd5b61009a60048036038101906100959190611b1f565b6101ef565b005b3480156100a857600080fd5b506100c360048036038101906100be9190611b72565b61087e565b6040516100d1929190611d1b565b60405180910390f35b3480156100e657600080fd5b5061010160048036038101906100fc9190611b72565b610be4565b60405161010e9190611f17565b60405180910390f35b34801561012357600080fd5b5061013e60048036038101906101399190611b72565b610e06565b60405161014b919061205e565b60405180910390f35b61016e600480360381019061016991906121b5565b610fec565b005b34801561017c57600080fd5b50610185611157565b6040516101929190612247565b60405180910390f35b3480156101a757600080fd5b506101c260048036038101906101bd9190612262565b61117d565b005b3480156101d057600080fd5b506101d9611309565b6040516101e691906122ee565b60405180910390f35b6101f761132f565b60066000600360009054906101000a900473ffffffffffffffffffffffffffffffffffffffff1673ffffffffffffffffffffffffffffffffffffffff1673ffffffffffffffffffffffffffffffffffffffff16815260200190815260200160002080549050811061029d576040517f08c379a000000000000000000000000000000000000000000000000000000000815260040161029490612366565b60405180910390fd5b60008080600090505b60066000600360009054906101000a900473ffffffffffffffffffffffffffffffffffffffff1673ffffffffffffffffffffffffffffffffffffffff1673ffffffffffffffffffffffffffffffffffffffff16815260200190815260200160002080549050811015610409578573ffffffffffffffffffffffffffffffffffffffff1660066000600360009054906101000a900473ffffffffffffffffffffffffffffffffffffffff1673ffffffffffffffffffffffffffffffffffffffff1673ffffffffffffffffffffffffffffffffffffffff168152602001908152602001600020828154811061039c5761039b612386565b5b906000526020600020906003020160000160009054906101000a900473ffffffffffffffffffffffffffffffffffffffff1673ffffffffffffffffffffffffffffffffffffffff1614156103f65760019250809150610409565b8080610401906123e4565b9150506102a6565b508161044a576040517f08c379a000000000000000000000000000000000000000000000000000000000815260040161044190612479565b60405180910390fd5b60006002541461048f576040517f08c379a0000000000000000000000000000000000000000000000000000000008152600401610486906124e5565b60405180910390fd5b6001600281905550600460009054906101000a900473ffffffffffffffffffffffffffffffffffffffff1673ffffffffffffffffffffffffffffffffffffffff166323b872dd600360009054906101000a900473ffffffffffffffffffffffffffffffffffffffff1687876040518463ffffffff1660e01b815260040161051893929190612514565b602060405180830381600087803b15801561053257600080fd5b505af1158015610546573d6000803e3d6000fd5b505050506040513d601f19601f8201168201806040525081019061056a9190612583565b5060006002819055506105a0600360009054906101000a900473ffffffffffffffffffffffffffffffffffffffff16868661137f565b60066000600360009054906101000a900473ffffffffffffffffffffffffffffffffffffffff1673ffffffffffffffffffffffffffffffffffffffff1673ffffffffffffffffffffffffffffffffffffffff168152602001908152602001600020600160066000600360009054906101000a900473ffffffffffffffffffffffffffffffffffffffff1673ffffffffffffffffffffffffffffffffffffffff1673ffffffffffffffffffffffffffffffffffffffff1681526020019081526020016000208054905061067291906125b0565b8154811061068357610682612386565b5b906000526020600020906003020160066000600360009054906101000a900473ffffffffffffffffffffffffffffffffffffffff1673ffffffffffffffffffffffffffffffffffffffff1673ffffffffffffffffffffffffffffffffffffffff168152602001908152602001600020828154811061070457610703612386565b5b90600052602060002090600302016000820160009054906101000a900473ffffffffffffffffffffffffffffffffffffffff168160000160006101000a81548173ffffffffffffffffffffffffffffffffffffffff021916908373ffffffffffffffffffffffffffffffffffffffff16021790555060018201548160010155600282018160020190805461079790612613565b6107a292919061183e565b5090505060066000600360009054906101000a900473ffffffffffffffffffffffffffffffffffffffff1673ffffffffffffffffffffffffffffffffffffffff1673ffffffffffffffffffffffffffffffffffffffff16815260200190815260200160002080548061081757610816612645565b5b6001900381819060005260206000209060030201600080820160006101000a81549073ffffffffffffffffffffffffffffffffffffffff0219169055600182016000905560028201600061086b91906118cb565b505090555050610879611682565b505050565b6060806000600660008573ffffffffffffffffffffffffffffffffffffffff1673ffffffffffffffffffffffffffffffffffffffff1681526020019081526020016000208054905067ffffffffffffffff8111156108df576108de61208a565b5b60405190808252806020026020018201604052801561090d5781602001602082028036833780820191505090505b5090506000600660008673ffffffffffffffffffffffffffffffffffffffff1673ffffffffffffffffffffffffffffffffffffffff1681526020019081526020016000208054905067ffffffffffffffff81111561096e5761096d61208a565b5b60405190808252806020026020018201604052801561099c5781602001602082028036833780820191505090505b50905060005b600660008773ffffffffffffffffffffffffffffffffffffffff1673ffffffffffffffffffffffffffffffffffffffff16815260200190815260200160002080549050811015610bd6576000600660008873ffffffffffffffffffffffffffffffffffffffff1673ffffffffffffffffffffffffffffffffffffffff1681526020019081526020016000208281548110610a3f57610a3e612386565b5b90600052602060002090600302016040518060600160405290816000820160009054906101000a900473ffffffffffffffffffffffffffffffffffffffff1673ffffffffffffffffffffffffffffffffffffffff1673ffffffffffffffffffffffffffffffffffffffff16815260200160018201548152602001600282018054610ac890612613565b80601f0160208091040260200160405190810160405280929190818152602001828054610af490612613565b8015610b415780601f10610b1657610100808354040283529160200191610b41565b820191906000526020600020905b815481529060010190602001808311610b2457829003601f168201915b50505050508152505090508060000151848381518110610b6457610b63612386565b5b602002602001019073ffffffffffffffffffffffffffffffffffffffff16908173ffffffffffffffffffffffffffffffffffffffff16815250508060200151838381518110610bb657610bb5612386565b5b602002602001018181525050508080610bce906123e4565b9150506109a2565b508181935093505050915091565b6060600760008373ffffffffffffffffffffffffffffffffffffffff1673ffffffffffffffffffffffffffffffffffffffff168152602001908152602001600020805480602002602001604051908101604052809291908181526020016000905b82821015610dfb5783829060005260206000209060040201604051806080016040529081600082018054610c7890612613565b80601f0160208091040260200160405190810160405280929190818152602001828054610ca490612613565b8015610cf15780601f10610cc657610100808354040283529160200191610cf1565b820191906000526020600020905b815481529060010190602001808311610cd457829003601f168201915b50505050508152602001600182015481526020016002820160009054906101000a900473ffffffffffffffffffffffffffffffffffffffff1673ffffffffffffffffffffffffffffffffffffffff1673ffffffffffffffffffffffffffffffffffffffff168152602001600382018054610d6a90612613565b80601f0160208091040260200160405190810160405280929190818152602001828054610d9690612613565b8015610de35780601f10610db857610100808354040283529160200191610de3565b820191906000526020600020905b815481529060010190602001808311610dc657829003601f168201915b50505050508152505081526020019060010190610c45565b505050509050919050565b6060600560008373ffffffffffffffffffffffffffffffffffffffff1673ffffffffffffffffffffffffffffffffffffffff168152602001908152602001600020805480602002602001604051908101604052809291908181526020016000905b82821015610fe157838290600052602060002090600402016040518060800160405290816000820160009054906101000a900473ffffffffffffffffffffffffffffffffffffffff1673ffffffffffffffffffffffffffffffffffffffff1673ffffffffffffffffffffffffffffffffffffffff1681526020016001820160009054906101000a900473ffffffffffffffffffffffffffffffffffffffff1673ffffffffffffffffffffffffffffffffffffffff1673ffffffffffffffffffffffffffffffffffffffff16815260200160028201548152602001600382018054610f5090612613565b80601f0160208091040260200160405190810160405280929190818152602001828054610f7c90612613565b8015610fc95780601f10610f9e57610100808354040283529160200191610fc9565b820191906000526020600020905b815481529060010190602001808311610fac57829003601f168201915b50505050508152505081526020019060010190610e67565b505050509050919050565b610ff461132f565b60008211611037576040517f08c379a000000000000000000000000000000000000000000000000000000000815260040161102e906126c0565b60405180910390fd5b60006001541461107c576040517f08c379a0000000000000000000000000000000000000000000000000000000008152600401611073906124e5565b60405180910390fd5b60018081905550600460009054906101000a900473ffffffffffffffffffffffffffffffffffffffff1673ffffffffffffffffffffffffffffffffffffffff166323b872dd8585856040518463ffffffff1660e01b81526004016110e293929190612514565b602060405180830381600087803b1580156110fc57600080fd5b505af1158015611110573d6000803e3d6000fd5b505050506040513d601f19601f820116820180604052508101906111349190612583565b5060006001819055506111498484848461168c565b611151611682565b50505050565b600360009054906101000a900473ffffffffffffffffffffffffffffffffffffffff1681565b600081116111c0576040517f08c379a00000000000000000000000000000000000000000000000000000000081526004016111b7906126c0565b60405180910390fd5b6111c861190b565b33816000019073ffffffffffffffffffffffffffffffffffffffff16908173ffffffffffffffffffffffffffffffffffffffff16815250508181602001818152505060066000600360009054906101000a900473ffffffffffffffffffffffffffffffffffffffff1673ffffffffffffffffffffffffffffffffffffffff1673ffffffffffffffffffffffffffffffffffffffff16815260200190815260200160002081908060018154018082558091505060019003906000526020600020906003020160009091909190915060008201518160000160006101000a81548173ffffffffffffffffffffffffffffffffffffffff021916908373ffffffffffffffffffffffffffffffffffffffff160217905550602082015181600101556040820151816002019080519060200190611302929190611942565b5050505050565b600460009054906101000a900473ffffffffffffffffffffffffffffffffffffffff1681565b60026000541415611375576040517f08c379a000000000000000000000000000000000000000000000000000000000815260040161136c9061272c565b60405180910390fd5b6002600081905550565b6113876119c8565b6040518060400160405280600481526020017f53656e640000000000000000000000000000000000000000000000000000000081525081600001819052508181602001818152505082816040019073ffffffffffffffffffffffffffffffffffffffff16908173ffffffffffffffffffffffffffffffffffffffff1681525050600760008573ffffffffffffffffffffffffffffffffffffffff1673ffffffffffffffffffffffffffffffffffffffff168152602001908152602001600020819080600181540180825580915050600190039060005260206000209060040201600090919091909150600082015181600001908051906020019061148c929190611942565b506020820151816001015560408201518160020160006101000a81548173ffffffffffffffffffffffffffffffffffffffff021916908373ffffffffffffffffffffffffffffffffffffffff16021790555060608201518160030190805190602001906114fa929190611942565b5050506115056119c8565b6040518060400160405280600781526020017f526563656976650000000000000000000000000000000000000000000000000081525081600001819052508281602001818152505084816040019073ffffffffffffffffffffffffffffffffffffffff16908173ffffffffffffffffffffffffffffffffffffffff1681525050600760008573ffffffffffffffffffffffffffffffffffffffff1673ffffffffffffffffffffffffffffffffffffffff168152602001908152602001600020819080600181540180825580915050600190039060005260206000209060040201600090919091909150600082015181600001908051906020019061160a929190611942565b506020820151816001015560408201518160020160006101000a81548173ffffffffffffffffffffffffffffffffffffffff021916908373ffffffffffffffffffffffffffffffffffffffff1602179055506060820151816003019080519060200190611678929190611942565b5050505050505050565b6001600081905550565b611694611a06565b84816000019073ffffffffffffffffffffffffffffffffffffffff16908173ffffffffffffffffffffffffffffffffffffffff168152505083816020019073ffffffffffffffffffffffffffffffffffffffff16908173ffffffffffffffffffffffffffffffffffffffff168152505082816040018181525050818160600181905250600560008673ffffffffffffffffffffffffffffffffffffffff1673ffffffffffffffffffffffffffffffffffffffff16815260200190815260200160002081908060018154018082558091505060019003906000526020600020906004020160009091909190915060008201518160000160006101000a81548173ffffffffffffffffffffffffffffffffffffffff021916908373ffffffffffffffffffffffffffffffffffffffff16021790555060208201518160010160006101000a81548173ffffffffffffffffffffffffffffffffffffffff021916908373ffffffffffffffffffffffffffffffffffffffff160217905550604082015181600201556060820151816003019080519060200190611834929190611942565b5050505050505050565b82805461184a90612613565b90600052602060002090601f01602090048101928261186c57600085556118ba565b82601f1061187d57805485556118ba565b828001600101855582156118ba57600052602060002091601f016020900482015b828111156118b957825482559160010191906001019061189e565b5b5090506118c79190611a5a565b5090565b5080546118d790612613565b6000825580601f106118e95750611908565b601f0160209004906000526020600020908101906119079190611a5a565b5b50565b6040518060600160405280600073ffffffffffffffffffffffffffffffffffffffff16815260200160008152602001606081525090565b82805461194e90612613565b90600052602060002090601f01602090048101928261197057600085556119b7565b82601f1061198957805160ff19168380011785556119b7565b828001600101855582156119b7579182015b828111156119b657825182559160200191906001019061199b565b5b5090506119c49190611a5a565b5090565b60405180608001604052806060815260200160008152602001600073ffffffffffffffffffffffffffffffffffffffff168152602001606081525090565b6040518060800160405280600073ffffffffffffffffffffffffffffffffffffffff168152602001600073ffffffffffffffffffffffffffffffffffffffff16815260200160008152602001606081525090565b5b80821115611a73576000816000905550600101611a5b565b5090565b6000604051905090565b600080fd5b600080fd5b600073ffffffffffffffffffffffffffffffffffffffff82169050919050565b6000611ab682611a8b565b9050919050565b611ac681611aab565b8114611ad157600080fd5b50565b600081359050611ae381611abd565b92915050565b6000819050919050565b611afc81611ae9565b8114611b0757600080fd5b50565b600081359050611b1981611af3565b92915050565b600080600060608486031215611b3857611b37611a81565b5b6000611b4686828701611ad4565b9350506020611b5786828701611b0a565b9250506040611b6886828701611b0a565b9150509250925092565b600060208284031215611b8857611b87611a81565b5b6000611b9684828501611ad4565b91505092915050565b600081519050919050565b600082825260208201905092915050565b6000819050602082019050919050565b611bd481611aab565b82525050565b6000611be68383611bcb565b60208301905092915050565b6000602082019050919050565b6000611c0a82611b9f565b611c148185611baa565b9350611c1f83611bbb565b8060005b83811015611c50578151611c378882611bda565b9750611c4283611bf2565b925050600181019050611c23565b5085935050505092915050565b600081519050919050565b600082825260208201905092915050565b6000819050602082019050919050565b611c9281611ae9565b82525050565b6000611ca48383611c89565b60208301905092915050565b6000602082019050919050565b6000611cc882611c5d565b611cd28185611c68565b9350611cdd83611c79565b8060005b83811015611d0e578151611cf58882611c98565b9750611d0083611cb0565b925050600181019050611ce1565b5085935050505092915050565b60006040820190508181036000830152611d358185611bff565b90508181036020830152611d498184611cbd565b90509392505050565b600081519050919050565b600082825260208201905092915050565b6000819050602082019050919050565b600081519050919050565b600082825260208201905092915050565b60005b83811015611db8578082015181840152602081019050611d9d565b83811115611dc7576000848401525b50505050565b6000601f19601f8301169050919050565b6000611de982611d7e565b611df38185611d89565b9350611e03818560208601611d9a565b611e0c81611dcd565b840191505092915050565b60006080830160008301518482036000860152611e348282611dde565b9150506020830151611e496020860182611c89565b506040830151611e5c6040860182611bcb565b5060608301518482036060860152611e748282611dde565b9150508091505092915050565b6000611e8d8383611e17565b905092915050565b6000602082019050919050565b6000611ead82611d52565b611eb78185611d5d565b935083602082028501611ec985611d6e565b8060005b85811015611f055784840389528151611ee68582611e81565b9450611ef183611e95565b925060208a01995050600181019050611ecd565b50829750879550505050505092915050565b60006020820190508181036000830152611f318184611ea2565b905092915050565b600081519050919050565b600082825260208201905092915050565b6000819050602082019050919050565b6000608083016000830151611f7d6000860182611bcb565b506020830151611f906020860182611bcb565b506040830151611fa36040860182611c89565b5060608301518482036060860152611fbb8282611dde565b9150508091505092915050565b6000611fd48383611f65565b905092915050565b6000602082019050919050565b6000611ff482611f39565b611ffe8185611f44565b93508360208202850161201085611f55565b8060005b8581101561204c578484038952815161202d8582611fc8565b945061203883611fdc565b925060208a01995050600181019050612014565b50829750879550505050505092915050565b600060208201905081810360008301526120788184611fe9565b905092915050565b600080fd5b600080fd5b7f4e487b7100000000000000000000000000000000000000000000000000000000600052604160045260246000fd5b6120c282611dcd565b810181811067ffffffffffffffff821117156120e1576120e061208a565b5b80604052505050565b60006120f4611a77565b905061210082826120b9565b919050565b600067ffffffffffffffff8211156121205761211f61208a565b5b61212982611dcd565b9050602081019050919050565b82818337600083830152505050565b600061215861215384612105565b6120ea565b90508281526020810184848401111561217457612173612085565b5b61217f848285612136565b509392505050565b600082601f83011261219c5761219b612080565b5b81356121ac848260208601612145565b91505092915050565b600080600080608085870312156121cf576121ce611a81565b5b60006121dd87828801611ad4565b94505060206121ee87828801611ad4565b93505060406121ff87828801611b0a565b925050606085013567ffffffffffffffff8111156122205761221f611a86565b5b61222c87828801612187565b91505092959194509250565b61224181611aab565b82525050565b600060208201905061225c6000830184612238565b92915050565b60006020828403121561227857612277611a81565b5b600061228684828501611b0a565b91505092915050565b6000819050919050565b60006122b46122af6122aa84611a8b565b61228f565b611a8b565b9050919050565b60006122c682612299565b9050919050565b60006122d8826122bb565b9050919050565b6122e8816122cd565b82525050565b600060208201905061230360008301846122df565b92915050565b600082825260208201905092915050565b7f4e6f205375636820526571756573740000000000000000000000000000000000600082015250565b6000612350600f83612309565b915061235b8261231a565b602082019050919050565b6000602082019050818103600083015261237f81612343565b9050919050565b7f4e487b7100000000000000000000000000000000000000000000000000000000600052603260045260246000fd5b7f4e487b7100000000000000000000000000000000000000000000000000000000600052601160045260246000fd5b60006123ef82611ae9565b91507fffffffffffffffffffffffffffffffffffffffffffffffffffffffffffffffff821415612422576124216123b5565b5b600182019050919050565b7f5265636569766572206e6f7420666f756e6420696e2072657175657374730000600082015250565b6000612463601e83612309565b915061246e8261242d565b602082019050919050565b6000602082019050818103600083015261249281612456565b9050919050565b7f5265656e7472616e637900000000000000000000000000000000000000000000600082015250565b60006124cf600a83612309565b91506124da82612499565b602082019050919050565b600060208201905081810360008301526124fe816124c2565b9050919050565b61250e81611ae9565b82525050565b60006060820190506125296000830186612238565b6125366020830185612238565b6125436040830184612505565b949350505050565b60008115159050919050565b6125608161254b565b811461256b57600080fd5b50565b60008151905061257d81612557565b92915050565b60006020828403121561259957612598611a81565b5b60006125a78482850161256e565b91505092915050565b60006125bb82611ae9565b91506125c683611ae9565b9250828210156125d9576125d86123b5565b5b828203905092915050565b7f4e487b7100000000000000000000000000000000000000000000000000000000600052602260045260246000fd5b6000600282049050600182168061262b57607f821691505b6020821081141561263f5761263e6125e4565b5b50919050565b7f4e487b7100000000000000000000000000000000000000000000000000000000600052603160045260246000fd5b7f416d6f756e74206d7573742062652067726561746572207468616e2030000000600082015250565b60006126aa601d83612309565b91506126b582612674565b602082019050919050565b600060208201905081810360008301526126d98161269d565b9050919050565b7f5265656e7472616e637947756172643a207265656e7472616e742063616c6c00600082015250565b6000612716601f83612309565b9150612721826126e0565b602082019050919050565b6000602082019050818103600083015261274581612709565b905091905056fea2646970667358221220d3ed9f5c80bba43864806efbf9d9308249b4f036d1d4c7cf6402f96ddcc1058b64736f6c63430008090033",
  "linkReferences": {},
  "deployedLinkReferences": {}
}